:020000040000FA
:1000000000400020D98C0100158D0100178D0100E2
:1000100000000000000000000000000000000000E0
:10002000000000000000000000000000198D010029
:1000300000000000000000001B8D01001D8D01006C
:100040001F8D01000DDA00001D9401001F8D0100BD
:100050001F8D010000000000D98D01001F8D0100DF
:10006000052701007D990100919201001F8D01007B
:100070001F8D01001F8D01001F8D01001F8D0100CC
:100080001F8D01001F8D01001F8D01001F8D0100BC
:100090001F8D0100598A010071890100412801006A
:1000A000512801001F8D0100000000000000000029
:1000B0000000000000000000000000000000000040
:1000C00010B5064C2378002B07D1054B002B02D02E
:1000D000044800E000BF0123237010BD2001002070
:1000E00000000000D4880300044B10B5002B03D09F
:1000F0000349044800E000BF10BDC04600000000F6
:1001000024010020D4880300164B002B00D1144B8F
:100110009D46402292029A1A924600218B460F4633
:100120001348144A121A28F0D1FE0F4B002B00D0AE
:1001300098470E4B002B00D0984700200021040068
:100140000D000D48002802D00C4800E000BF20F050
:1001500047FC2000290028F052FC20F05FFBC0463D
:100160000000080000400020000000000000000027
:1001700018010020EC2F002000000000000000000B
:10018000FF230322DB05CB1810B59343042804D8C2
:1001900019F00EFD06030F0416000021080010BD23
:1001A0000021181C19F0D8FE0A490028F6D00A4987
:1001B000F4E7181C1AF032FE012140000143EDE77C
:1001C000802109065B18022193431943034BC91888
:1001D000E4E7C046B0AF0200A8AF02000000808094
:1001E000FF23DB0510B50400C81803239843002340
:1001F00086B00193063300931022613302A906F002
:1002000067F802A9200025F02DFF2E2102A828F072
:1002100099FE00280FD1652102A828F093FE00283E
:1002200009D16E2102A828F08DFE002803D10349D0
:10023000200025F017FF06B010BDC046394303006B
:1002400030B50C001100002285B01D000092012382
:10025000200000F049F9002C23D02868124B0340FD
:10026000062B06D0032420420ED1104B02689A427E
:100270000AD103A911F038FA002203990092130061
:1002800000F0AAFC05B030BD03002340022BF9D0DA
:1002900004F092FF03000220A3431843044BC0184C
:1002A000F0E70448EEE7C046070080FFE0D5020013
:1002B000000080800200808070B5050086B01000CC
:1002C000019104F079FF041C0390681F182800D9DD
:1002D000B8E019F06DFC0D121F24333E6A7CB7B7ED
:1002E000B7B7B70D121F24333E6A9AA3A8ADB20068
:1002F0000198211C19F068FF03E0211C01981AF0F5
:10030000D1FB0190032301984F4A9843013B0343DB
:100310009B1877E0211C01981AF0AEFAF1E7002152
:10032000201C19F019FE002803D04849484823F042
:10033000F4FD03A901A821F076F9E3E70021201CD0
:1003400019F00AFE0028F0D1211C01981AF0B8F823
:10035000D7E70021201C19F0FFFD0028E5D1211C62
:1003600001981DF005FA0021051C019019F0F4FD1B
:10037000002807D0039A0023002A01DA80231B06F5
:100380000193BFE70021281C19F0ECFD0400039E37
:10039000601E84410021301C19F0E4FD431E984189
:1003A000A042AFD0311C281CA4E7019D0021281CCD
:1003B00019F0D2FD002805D00021201C19F0D2FD33
:1003C0000028B2D1211C281C1DF0BCFA99E700219D
:1003D000201C19F0C1FD0028A7D103A901A821F014
:1003E00022F903220220019B1749934303435B1820
:1003F0000493039B934303435B1804A9059309F0FB
:10040000DBFE0300180006B070BD0199201C19F036
:10041000BDFD104B0028F5D10F4BF3E70199201CCF
:1004200019F0A0FDF5E70199201C19F095FDF0E702
:100430000199201C19F0B4FDEBE70199201C19F07B
:100440009BFDE6E70023DDE70000808002FD02005F
:1004500014B60200B0AF0200A8AF0200F0B506006B
:1004600000248BB0194B1A48E15802F0B5FF03AFD6
:10047000E05104341C2CF5D1142300247343019360
:100480000025AB00F958134822F00BFD0135300070
:1004900021F078FA072DF4D1013DAB000D48F95851
:1004A00022F0FFFC300021F06DFA013DF5D201345D
:1004B000082C03D103F004FE0BB0F0BD01231C4255
:1004C000DED1019821F05EFADAE7C046949102008D
:1004D000B49702000C00002010B51920FFF7BEFFF2
:1004E000004810BD80B8020010B51C0002AB1B789C
:1004F000002904D0002B02D10E480BF09DFAA24235
:1005000007D1824214D003000B490C4803F082F952
:1005100006E0824206D9121A0949084803F07AF91E
:1005200005F04CFA844203D2030022000549ECE7AF
:1005300010BDC04613FD02003CFD020060B5020084
:1005400075FD0200A7FD0200F0B50024170087B07A
:100550000C9D03900491059302940194059B9C4289
:1005600006D1019B039A934240D225480BF064FACE
:10057000039B9C4213D26B889B05F6D4019B049A83
:1005800001330193A300D058FF226B88A6001340CB
:10059000012B24D104F0E8FE0D9B985517E00623AB
:1005A00029880022C900194338000CF04BF80028B4
:1005B00010D16B88DB0506D52A881249124803F052
:1005C00029F905F0FBF90D9A6968A300D1500134AF
:1005D0000835C3E7029B406801330293D4E7022B3E
:1005E00001D104F083FD0D9B9851F0E73B68029A1E
:1005F000DB08934201D90548B8E707B0F0BDC04613
:10060000EDFD0200D6FD020060B502000EFE020004
:100610000048704716FCFFFF0048704716FCFFFFBC
:1006200082B007B591B204920593052909D01B2920
:1006300002D104A800F016FA002003B008BC02B0F2
:10064000184704AB5B88032BF6D106A9082268463D
:1006500028F020FC0349049A059B086816F0DAF993
:10066000EAE7C046C42A00200022044B5A60044A2C
:1006700008321A60034A13607047C0463C010020EC
:10068000C0910200A02B0020054B10B59A6C002AE7
:1006900004D00022986C9A6405F090F910BDC04611
:1006A000782E0020054B10B5186827F0BFF8044BD2
:1006B000002800D1034B180010BDC046C02A0020FE
:1006C000B0AF0200A8AF020010B5034B186827F0C6
:1006D000B5F8024810BDC046C02A002080B802000C
:1006E00010B5034B186827F017F925F02AFF10BD45
:1006F000C02A002010B5034B186827F014F925F024
:1007000020FF10BDC02A002010B5034B186827F049
:1007100011F925F016FF10BDC02A002010B5034BBB
:10072000186827F0BCF825F00CFF10BDC02A002087
:1007300030B593B011F084FF184C200027F0BCFCBA
:10074000174D286816F072F8200027F0BAFC11F057
:1007500067FF22F02AFC21F017F80400296803A89B
:1007600027F05AF80F4B20000A93039B0B93049B2E
:100770000C93059B0D93069B0E93079B0F93089B71
:100780001093099B0193119324F05CF82000202220
:100790000AA90CF029FE044813B030BDC82A002075
:1007A000C02A002055BA11C080B80200F8B5114D1A
:1007B0000400286827F03AF8002802D12000FFF74B
:1007C000B7FF0D4B1B78002B0DD10C4E3478E4B2E3
:1007D000002C08D101272868377003685B689847A8
:1007E000054B34701F70286816F0FCF825F0A9FE40
:1007F000F8BDC046C02A0020C62D0020C72D00200D
:10080000F0B58DB020F0C0FF0E4B02689A4217D1B0
:1008100004694168089444698268C36809948469DA
:10082000C0690A9484466C4605910692079308A80D
:10083000E0C8E0C4604620600348006826F0D6FFA8
:100840000DB0F0BD55BA11C0C02A002070B504002B
:1008500004F068FB00230C49DA0052181568A54221
:1008600005D15168094825F0FDFB012070BD013319
:10087000612BF1D1064B9C4203D0984201D000205D
:10088000F4E70449EEE7C046A492020068E60200DD
:10089000709602002CFE020010B5034B186826F07B
:1008A0001FFF25F04EFE10BDBC2A002010B5034BE3
:1008B000186826F01CFF25F044FE10BDBC2A00205D
:1008C00010B5034B186826F019FF25F03AFE10BD4D
:1008D000BC2A00201FB50021032009F06DFC0A4B43
:1008E0000400196801A826F0EEFE019825F029FE03
:1008F000A060029825F025FEE060039825F021FE17
:100900002061200004B010BDBC2A002010B510F0FA
:10091000B9FA0023064A99008958814205D001336B
:100920000C2BF8D103480AF0C3FE180010BDC046D6
:10093000AC95020033240300094A70B51378002BEC
:100940000DD1084D2C78E4B2002C08D1013313707E
:100950002B70054B186803685B6898472C7070BD56
:10096000C82D0020C92D0020BC2A002010B5FFF79B
:10097000E3FF054B186826F0E2FE044B8000C358E5
:100980000620DB00184310BDBC2A0020AC950200F5
:1009900010B50800FFF7BAFF0400FFF7CDFF054BC5
:1009A000186826F0CCFE044BA04200D0034B180080
:1009B00010BDC046BC2A0020B0AF0200A8AF0200A4
:1009C00010B50800FFF7A2FF0400FFF7B5FF0123F1
:1009D000A340064A064811880B4200D105481188F9
:1009E000994311800022044B1A7010BDBC2D0020C9
:1009F000B0AF0200A8AF0200D22D0020F8B5FFF77B
:100A00009BFF144C14482378002B22D0207800211F
:100A1000C0B209F0D1FB01260022104F2378934287
:100A200015D9010008310D0011005308FB5C31405D
:100A300089000B410F210B4009499B005B5806219F
:100A4000DB000B43290095004B510132E6E7002300
:100A50002370F8BDD22D002030C80200CA2D00201E
:100A6000AC95020070B543885A1E0A2A1FD801258A
:100A70002A009A400F490888024392B20E480A8021
:100A800002780F2A13D802780C4CEA40A25C067850
:100A9000D2B20F212E420BD00A401B011343027821
:100AA000DBB25208A35403780133DBB2037070BD8C
:100AB0008A43F3E7BC2D0020D22D0020CA2D002050
:100AC00010B50400002906D0044B8A6B0360096846
:100AD000002302F00BFF200004F070FFE8B40200D6
:100AE000F0B5040087B0039202936618002A06D07E
:100AF000023A222A03D935480AF0DAFD0134B44219
:100B000029D220780BF0B8FC071EF7D123782B2BC5
:100B10001CD10134311B200003AA20F0F2FD231860
:100B20001C0000250193B44217D3002F00D06D4262
:100B300001236D001D43019B9C422FD12449039A40
:100B4000244802F067FE0299FFF7BAFF2D2BE1D18E
:100B500001340127DEE70027DCE723781A00303A6A
:100B60000092092A07D9202213431A00613A192A50
:100B7000DBD8573B00930399009B9942D5D92800B5
:100B800002F072FD002816D1039B5D43009BED1817
:100B90006B006B400FD40134C5E70134B44205D279
:100BA00020780BF069FC0028F7D1C7E7B442C5D123
:100BB000280007B0F0BD019B3A000593F11A05A883
:100BC000039B25F0E4FC059C0500B4E77A240300B0
:100BD0009D240300D8B50200F0B504008BB0089343
:100BE000431804920193019B9C4200D3FDE02078BE
:100BF0000BF042FC071E38D123782B2B37D1013460
:100C00000590019B9C4200D3F1E0202322781A43F7
:100C1000692A33D10199A21C914200D8DEE06278A2
:100C20001A436E2A00D0D9E0A2781A43662A00D06F
:100C3000D4E0E21DE51C914214D9E2781A43692AF6
:100C400010D122791A436E2A0CD162791A43692A8B
:100C500008D1A2791A43742A04D1E2791343792B7B
:100C600000D10535FF26F6051BE00134BBE70590F2
:100C70002D2BCAD12C3B01340593C2E76E2A2ED10D
:100C80000199A21C914200D8A8E062781A43612A17
:100C900000D0A3E0A27813436E2B00D09EE05D4EFF
:100CA000E51C059B002B02D080231B06F618A542ED
:100CB0007BD159498CE03D002B786F1C18003038EF
:100CC000092834D8022E15D10A23029A53431B183F
:100CD0000293019BBB42EED8002304934DE0002217
:100CE000079202924D4A25000692002200260392A6
:100CF0000993E1E71AF0FCF8051C012E0DD10699C5
:100D000019F0BAFD011C039819F05EFA43490390EB
:100D1000069819F0B1FD0690DBE74149039819F0F8
:100D2000ABFD291C19F050FA00260390D1E7002EE4
:100D300003D12E2B03D10126CBE7022E16D0099A20
:100D40001A43652A12D1019BBB4256D96B782B2BD3
:100D500005D1AF1C019B9F42ABD00226B9E702260A
:100D60002D2BA8D12C3BAF190793F3E7049A002A47
:100D700004D0202213436A2B13D13D00079B002B84
:100D800002D0029B5B42029302981AF067F8011CA2
:100D900023481CF0D7FD039919F06EFD049F061C33
:100DA0007FE700230493E9E70135019B9D4205D2CB
:100DB00028780BF061FB0028F6D17AE7019B9D4271
:100DC00000D076E7089B002B01D1002F1AD01549DF
:100DD000154822F045F81099FFF772FE059B002B8D
:100DE00000D166E7250000265EE700230593002377
:100DF0000393002325000493C5E7019BBB4200D168
:100E000057E769E7032302209E43084B3043C0188D
:100E10000BB0F0BD0000C07F60240300CDCCCC3D02
:100E20000000204143240300D8B502000000808068
:100E3000F0B5124B87B003AD40C90138009301955E
:100E40000323FFF781FB68680D4F1E24B84202D0D0
:100E500022F0C1FD44B2A8680023B84202D022F0BB
:100E6000BAFD43B2706803994371047117F01CFE18
:100E7000706818F083F9380007B0F0BD7899020067
:100E800080B8020030B5124B8BB003AC20C90138DA
:100E9000009301940323FFF757FB616806A822F033
:100EA00077FC039B089A5900237A00936868079B94
:100EB00016F09AF9021E05D00649074802F0AAFC6E
:100EC00004F07CFD06A905480FF084FF0BB030BD8F
:100ED00090990200C5240300F8B302001CD9020057
:100EE00030B5114B89B002AC20C901380093019490
:100EF0000323FFF729FB012205A9606804F0B0FA7B
:100F0000029B059A5900237A00936868069B16F0A5
:100F10007BF9021E05D00549054802F07BFC04F070
:100F20004DFD044809B030BDA8990200D724030044
:100F3000F8B3020080B802000021F8B54768080045
:100F400020F014FF08250600B1223B68D2009D5016
:100F5000802200209200190098500122FC319A60F2
:100F600088605A61104A8868002803D1002A19D085
:100F7000013AF8E70024A24204D00C4A9C5863428C
:100F80005C41E4B2380018F0F9F8002C05D00121DA
:100F90006B001943300001F0F9FA0135782DD3D1F7
:100FA0003000F8BD1400EDE710270000C404000075
:100FB00070B5137804000A3BD8B20F2809D90A008B
:100FC0001048114902F026FC0025636A18602800C9
:100FD00070BD002552781B021A43E36AAB420AD166
:100FE000238C0025042BF2D10849064802F012FC9C
:100FF000636A1860EBE7206BA90009589142E6D0BC
:101000000135EBE7E8B402006D26030082260300F9
:10101000F0B5040085B00D00100003A9A26A1E00FF
:1010200022F074FE002809D12A000B490B4802F077
:10103000F1FB636A1860002005B0F0BD039804F06E
:1010400081F80300B343F7D0030000962A00044957
:10105000024802F0DFFBECE729260300E8B40200B7
:1010600041260300F7B51E0013780D000A3BD9B2E4
:1010700004001C480F2904D850781B02184320F0A4
:1010800095FD0378184A019300235178019FB942D6
:101090001DD141788C4691788C4518D181788C4649
:1010A000D178614513D100290ED10F4A9B00D05C45
:1010B000B04208D933002A000C490D4802F0AAFBBF
:1010C000636A18600020FEBDC1780029EDD00133AD
:1010D0000432152BD9D12A000649054802F09AFBA3
:1010E000EEE7C0462F660300E526030099260300BD
:1010F000E8B40200B2260300F0B5137885B005000D
:101100000E00462B47D101A9100022F02FFE019BB3
:10111000834240D003781A000A3A0F2A0AD8020004
:101120000F2331002800FFF79DFF01248440200099
:1011300005B0F0BDB32B2ED122F013FE040022F037
:101140000BFE02900378B62B25D1A73B220031007D
:101150002800FFF787FF012403A98440029822F0AA
:1011600005FE039B0290984203D09D2102A822F025
:101170000CFE0127029A039B9A42D8D00F2331001C
:101180002800FFF76FFF3B00834002981C4322F0CA
:10119000E3FD0290EEE732000349044802F03AFB17
:1011A0006B6A00241860C2E7CA260300E8B4020094
:1011B000F0B50F0087B0040004A938001E000192AA
:1011C00020F0F9FC019B0500002B0FD1A4239B000C
:1011D0009F4205D1BF210902200022F0A9FEBDE0F7
:1011E000BD4B9F4200D083E0BC49F5E7019B012B3A
:1011F00000D095E00A23FF339F4212D101003268EC
:101200002000FFF7D5FE0100200022F0DBFE0028C1
:1012100000D0A3E0B249B348646A21F021FE206007
:101220009CE0B14B9F4209D1010032682000FFF7DA
:10123000BFFE0100200022F01BFFE8E7AB4B9F42FE
:101240000AD101000F2332682000FFF70BFF8E2127
:10125000C000C9010143BFE70378622B31D1049B71
:10126000032B07D0052B2CD1C3785F2B29D1037911
:101270006E2B26D10127002269789D4B7F4258783A
:10128000884205D1A87884469878844500D11F7893
:10129000013203330E2AF2D17B1C29D03268290097
:1012A0002000FFF785FE049902000023052903D1E1
:1012B0002B79773B59424B413900200022F09EFEAA
:1012C000A5E78C4B9F4201D18B4985E78B4B9F4211
:1012D00001D18B4980E78B4B9F4212D129003268A4
:1012E0002000FFF709FFFF231B02B421184215D08D
:1012F000019B2A0084497B4802F08CFA636A1860DB
:101300002CE0824B9F42F3D1326829002000FFF786
:10131000F3FEFF231B021842EAD1BC21090299E720
:10132000019B022B00D024E17368794A1B780A3BA9
:101330000F2B4BD8974213D101000F2332682000A6
:10134000FFF790FE7268070029000F232000FFF7C7
:1013500089FE39000200200022F01DFE07B0F0BD1A
:101360006C4B9F4215D18027FF013268290007236B
:101370002000FFF777FE7268019029000723200004
:10138000FFF770FE019A03003900200022F0FCFDF7
:10139000E4E70027604B01330293032202992800FF
:1013A00027F0EFFD00280AD1EB78002B07D15A4B2C
:1013B000BF00DF5D80233F01DB011F43D5E7029BB8
:1013C0000137043302930F2FE7D191E7974219D1E8
:1013D00080270723326829002000FFF743FEFF2300
:1013E0000190290072682000FFF712FE019BBF01E7
:1013F000074319023943EFE6A027EAE7C027E8E7E9
:10140000E027E6E787239B009F42F5D01E3B9F42E3
:10141000F4D0424B9F42F3D0414B9F4251D0414BBD
:101420009F4250D0404B9F424FD04F339F424ED0AF
:101430003E4B9F424DD03E4B9F4200D058E7052384
:101440003C4A9B009B5A29000293326807232000E4
:10145000FFF708FE766803903378452B6CD1300097
:1014600022F0BFFC002867D1300022F07AFC03781C
:10147000A62B61D105A922F079FC0599060022F07E
:101480005FFC022858D1300022F066FC07233200AE
:10149000070029002000FFF7E5FD029B0600DB04A2
:1014A00052D51F233A0029002000FFF7B1FD029911
:1014B000039BF60019433143F8268001F6003040C3
:1014C000C8E60023BCE70123BAE7019BB8E7032382
:1014D000B6E70423B4E7C046E602000030BF0000D0
:1014E000D9250300E8B402000B0200000F0200003F
:1014F000EA2403002202000072B60000230200006A
:1015000062B600009F020000A42503009A020000BA
:101510008902000001020000ED250300C502000061
:101520006E0200006F02000071020000C1020000A4
:10153000C3020000C4F702002A003F493F4802F0FE
:1015400069F9636A1860D3E66B4608229B5E002B3C
:1015500007DA3E233A0029002000FFF759FD400832
:10156000A5E77C233A0029002000FFF751FD800801
:101570009DE7019B032B00D0BAE69E239B009F4270
:1015800021D100270723326829002000FFF76AFDD8
:1015900007230190726829002000FFF763FD1F23D5
:1015A00002902900B2682000FFF732FD8101019806
:1015B000029B38430143DF001CE780273F01E1E73E
:1015C00080277F01DEE71E4B9F42F6D01D4B9F42D6
:1015D000F6D0093B9F4229D1C02707233268290052
:1015E0002000FFF73FFD07230190726829002000CB
:1015F000FFF738FDB2687F01137802900A3B0F2B8A
:101600000BD8072329002000FFF72CFD029B800147
:10161000D900019B194339431CE68023DB001F439B
:10162000290007232000FFF7F3FCEFE7064B9F425A
:1016300000D05DE6D027D0E779250300E8B40200AA
:101640007902000007020000C5020000F7B50E0095
:1016500007001100300022F073FB0025040004286D
:101660001ED97C6A1349144821F0FAFB206000243B
:101670002000FEBD73780002184320F097FA02366E
:10168000019027F077FC022811D1019B1B78722B67
:101690000DD1019B5A782B0030339A4207D1013586
:1016A000A542E5D030780A38C3B20F2BE2D97C6A64
:1016B0000249D8E714250300E8B4020047250300D7
:1016C00010B53E2803D040282ED03C2816D15329EF
:1016D00027D016D84C2924D008D8482955D04929D4
:1016E0001FD042290AD10123180043E04F2905D316
:1016F0000123502916D9082051293BD0274809F049
:10170000D7FF682941D006D8642941D0662908D07E
:101710006229F3D1E7E76C2903D0712938D0692910
:10172000ECD10123042025E0512934D011D84929D6
:101730000DD007D84229D6D002234829D4D0012978
:10174000DCD1D0E74C2902D0D8D34F29D6D30423FB
:10175000CAE76629FBD006D86229C4D064291AD00A
:101760005329F4D0CAE76929F1D007D80223180019
:101770006829C3D1002A00D0136010BD6C29E6D0BF
:10178000082318007129F5D0B8E701230220F1E7FA
:1017900001230820EEE70823A6E7C0463927030007
:1017A00010B551283DD017D8492810D00AD8422862
:1017B00028D048282BD0012824D0002301205B000A
:1017C000184308E04F2848D017D84C28F5D192008C
:1017D000505824F0D1FE10BD682815D007D86428D1
:1017E00030D0662824D06228E7D18B56E6E76C28F3
:1017F00003D071280ED06928DFD19200505824F010
:10180000A0FEE8E78B5CD9E75200535ED6E75200B2
:10181000535AD3E7D2008A181068516824F082FE28
:10182000D9E7D2008A181068516824F096FED2E7F2
:101830000323920050589843030002201843084B9A
:10184000C018C8E7D2008A18106851681BF0E8F980
:10185000032302009A431300EFE792005058BAE7BF
:1018600000008080F7B51700156801AA04000E007B
:10187000FFF726FF402C05D1019B043C5A1EAA18F5
:101880005D4215405A213E3C62426241B14289416B
:101890002B183B60D2B22B0049421FF0DFFF04003F
:1018A0000D004F2E08D0532E07D127F063FB0022E6
:1018B000010020000FF0C4FAFEBD662E06D10323FE
:1018C00002249843154B2043C018F5E7642E06D137
:1018D0001BF0A6F90323040002209C43F2E75A2ED2
:1018E0000FD980220023D20512196B41002B04D19D
:1018F000002A02DB24F025FEDEE7290024F012FE98
:10190000DAE7002905D1064B984202D824F034FECC
:10191000D2E7290024F021FECEE7C04600008080F7
:10192000FFFFFF3FF0B589B0160005AA02931C68BF
:1019300001900F00FFF7C4FE019B0500402B06D16C
:10194000059B5A1EA2185C423C2314400193029A44
:1019500063191360019B3E3B03935A425341DBB230
:101960000293642F12D0662F0BD04F2F2AD128005C
:10197000042D00D904203300220002991FF097FFA4
:101980002CE0300003F018FC0600F0E7300003F014
:1019900013FC1BF0F3F8029B0690079108AA9B002A
:1019A000D318083B22001B68029904201FF07FFF18
:1019B000039B04345A1E934108AA9B00D318083B8A
:1019C0001E68D4E7B3070BD1104B32689A4207D197
:1019D00023002A000299300024F080FD09B0F0BDF8
:1019E000300003F083FB0600042DC0D900215A2FDC
:1019F00002D9884200DAFF312A00200027F066FA77
:101A0000019B3E2BB3D12B1FE418B0E724D3020077
:101A1000F7B506000F0014001D0064280DD06628DD
:101A200004D04F2813D19400E35105E0940018002E
:101A30000F1903F0C1FB3860F7BD180003F0BCFBC1
:101A40001BF09CF8E4003F1938607960F4E7032349
:101A50002B40019311D10E4B2A689A420DD1019A65
:101A600001004020FFF72CFE230043430200FB1837
:101A70000199280024F032FDDEE7280003F036FB50
:101A800022000300390030001FF026FFD4E7C046D3
:101A900024D3020010B50400034B0360403025F04E
:101AA000B8FC200010BDC046089A020010B50F4CCB
:101AB000200026F098FE002808D0200026F065FEC1
:101AC0000B4B1B68984202D111F036FF10BD3F212D
:101AD000084A138801330B40074909888B42F5D027
:101AE0001188064C13806054F0E7C0464401002082
:101AF000D02F0020BE2D0020C02D0020D32D00208F
:101B0000002210B5044B05491A80054B05481A8080
:101B100026F06EFE10BDC046BE2D0020AD1A00009E
:101B2000C02D002044010020034B1888034B1B8864
:101B3000C01A431E98417047C02D0020BE2D0020C2
:101B4000084A094B10881988884201D130BFF9E74B
:101B500013880649C85C3F21138801330B4013806A
:101B60007047C046C02D0020BE2D0020D32D002080
:101B700070B504004518AC4205D02178024826F023
:101B800008FE0134F7E770BD4401002070B5040081
:101B90004518AC420DD02378064E0A2B03D10D21F7
:101BA000300026F0F6FD2178300026F0F2FD0134F9
:101BB000EFE770BD4401002070B504000825002C3B
:101BC00008D02100082C00D929000348641AFFF727
:101BD000CFFFF4E770BDC0464F27030070B5050086
:101BE00004000826002C08D02100082C00D9310060
:101BF0000448641AFFF7BCFFF4E72800FFF7DCFF96
:101C000070BDC0464627030010B50100014821F011
:101C1000A2F910BD0C000020142313B5064C00934C
:101C200019221821200015F0D9FC044A044920008B
:101C300027F0B9F813BDC046440100200000002081
:101C4000951A000003000F2010B5084002280ED896
:101C500017F0AEFF02040900180010BD0648002B63
:101C6000FBD10648F9E7180024F06BFCF5E71800F3
:101C700024F082FCF1E7C046B0AF0200A8AF02003A
:101C8000F0B5060087B000AFBA607B60F9600CF079
:101C900021FAB06821F0FFFA3861B06821F001FB49
:101CA00021F0F9FA032343433A699B189B001D0076
:101CB0007B6114352C2B2CD86B460735ED08ED00D5
:101CC0005B1B9D4600236C467B610023266063609E
:101CD000BA687B68F968200004F07AFE154D00218F
:101CE0006B682000236173686B6002F07FFA2369E0
:101CF000061E6B6013D1A3681D687B69002B04D09E
:101D0000200024F084F8002E11D12800BD4607B031
:101D1000F0BD280024F059F8041ED6D1CCE73B6969
:101D200003339B00E3185D687B69002BE8D1280032
:101D300003F044FE782E00200122030030B513404A
:101D400085B004004510002B14D125491D008842A0
:101D500010D0244988420DD0234B1500984209D059
:101D60000323034009D1214A0168914205D124F09F
:101D700025FC0500280005B030BD1D4A2500224085
:101D8000062A05D0002B08D11A4B22689A4204D1AA
:101D900001A920000FF0A8FCEBE7200003F0C2F837
:101DA000154B984207D1FF23DB05E0180323984326
:101DB00019F034F8DDE7114B984202D0104B9842ED
:101DC00006D101AA6946200003F034FA019DD1E74B
:101DD000022201A9200021F01BF90028CAD0F5E752
:101DE00080B80200A8AF0200B0AF020024D3020006
:101DF000070080FFE0D502002891020038C80200E9
:101E000004AA0200F7B506000F0000920193041E19
:101E100000D044683800431E9841201804308000E8
:101E200023F0C6FF0C4B050003600C4B5B6843605E
:101E3000009B8360019BC360002E05D03100A2008F
:101E40000831103027F026F8002F02D00434A40007
:101E500067512800FEBDC0464C9A0200782E002033
:101E600070B5060010200D00140023F0A1FF034BF5
:101E7000466085600360C46070BDC046109A020071
:101E8000074B5B69002B01D1180006E05A688242BB
:101E900004D8801A04308000C05870471B68F1E7EE
:101EA000782E002070B5144D04006B699868DB68CB
:101EB000834215D30230C00023F087FF6B690028EE
:101EC00003D19868400009F0DDFB5A68D9680360C7
:101ED0009B6852185B00836000234260C3606861A6
:101EE0006A69D3685068591C04339B000138D1607B
:101EF00040189C5070BDC046782E0020074B4118FA
:101F0000884204D3D8B2002800D1013070475A016A
:101F1000D318027801305340F2E7C046051500009F
:101F2000034B044A5A6100229C331A607047C04632
:101F3000782E0020B49B0200F0B585B001900E0011
:101F4000FFF7DCFF144B02905C69002C01D12000EC
:101F50001EE0270010373D00E3689B00FB18039349
:101F6000039B9D4201D32468EFE72868029A037817
:101F700093420FD14378B3420CD102303200019921
:101F800026F07AFF002805D1ED1B6068AD102818F7
:101F900005B0F0BD0435E3E7782E0020F0B585B03C
:101FA00003900191FFF7C8FF002857D1304D019BE6
:101FB0009C35DC1C2B68002B17D02D4F2C4EA437E2
:101FC000A0363A683168A2188A422BD902006118FB
:101FD000180023F018FF029000281DD10200396874
:101FE000286823F010FF029B2B602600802C00D273
:101FF0008026300023F0E9FE1D4D2F009C3738600D
:1020000000282DD1200023F0E0FE260038600028B3
:1020100026D1200009F036FB33681B1933602B688A
:10202000002BE2D0124A1249A43213689C310D6889
:10203000E41801990398ED181460FFF75FFF019B06
:1020400028701A006B70A81C039926F023FF002249
:10205000019B2800EB189A70FFF724FF05B0F0BD34
:102060002B00A0331E600023A4352B60DAE7C046A6
:10207000782E0020F7B51D0016000023070003602E
:102080000B6033602B60174B00915C69002C02D011
:10209000154B9C4204D133682A68D3182B60F7BDD6
:1020A0003B6801333B60E268009B94461B68009AE2
:1020B0000193634413602200E36810329B00D3183D
:1020C0009A4207D3200003F03FFF2B6824681818BA
:1020D0002860DBE702CA30684978033009183160AC
:1020E000EEE7C046782E0020B49B02000C4B70B582
:1020F0005C69002C02D00B4B9C4200D170BD2600C5
:10210000E36810369D007519AE4201D32468F0E7EC
:1021100004CE05490232054824F062F8F4E7C046CF
:10212000782E0020B49B02005E27030068E60200C0
:1021300010B503F041F8054918F09EFB0323020097
:1021400002209A43024B1043C01810BDE02E654296
:102150000000808010B503F02FF8054918F08CFBC3
:102160000323020002209A43024B1043C01810BD03
:1021700035FA8E3C0000808010B503F01DF8011C7C
:1021800018F036FE024B002800D1024B180010BD9B
:10219000B0AF0200A8AF020010B503F00DF8440084
:1021A00064080849201C18F023FE002805D10549C1
:1021B000201C17F0EBFE002801D0034810BD034897
:1021C000FCE7C046FFFF7F7FA8AF0200B0AF020070
:1021D00010B502F0F1FF034B034002201843024BFD
:1021E000C01810BDFCFFFF7F0000808010B502F01A
:1021F000E3FF440064080849201C18F0F9FD00289A
:1022000007D10549201C17F0B7FE002801D103486B
:1022100010BD0348FCE7C046FFFF7F7FB0AF020060
:10222000A8AF02001FB50023019302F0C5FF01A96A
:102230001AF0D0FF03220300022093430649034310
:102240005B180293019B934303435B1802A903931A
:1022500007F0B2FF05B000BD0000808070B50D0032
:1022600002F0AAFF041C280002F0A6FF18F0D6FD19
:102270000100201C1AF08AFF0323020002209A4367
:10228000014B1043C01870BD000080801FB50023B3
:10229000019302F091FF01A91AF050FF03230224D9
:1022A0009843074B2043C0180290019824F049F945
:1022B00002A90390200007F07FFF04B010BDC046C4
:1022C0000000808070B50D0002F076FF041C28002D
:1022D00002F072FF011C201C1BF04AFA03230200CB
:1022E00002209A43014B1043C01870BD000080804B
:1022F00070B50D0002F060FF041C280002F05CFFC6
:10230000C00FC3076000400818430323022498430A
:10231000014B2043C01870BD0000808070B50D00D7
:1023200002F04AFF041C280002F046FF011C201C9A
:102330001BF0A4F90323020002209A43014B10432F
:10234000C01870BD0000808010B502F035FF1AF093
:1023500019FD0323020002209A43024B1043C018C8
:1023600010BDC0460000808010B502F025FF1BF0B4
:1023700033F90323020002209A43024B1043C01892
:1023800010BDC0460000808010B502F015FF1BF0A4
:10239000D1F80323020002209A43024B1043C018D5
:1023A00010BDC0460000808010B502F005FF1BF094
:1023B00021F80323020002209A43024B1043C01865
:1023C00010BDC0460000808010B502F0F5FE1AF086
:1023D000D3FF0323020002209A43024B1043C0188C
:1023E00010BDC0460000808010B502F0E5FE1AF076
:1023F00021FE0323020002209A43024B1043C0181F
:1024000010BDC0460000808010B502F0D5FE1BF064
:1024100039F90323020002209A43024B1043C018EB
:1024200010BDC0460000808070B50D0002F0C4FEF3
:10243000041C280002F0C0FE011C201C1BF082FAC4
:102440000323020002209A43014B1043C01870BDC1
:102450000000808010B502F0AFFE0021041C17F0D0
:1024600081FD002802D0074809F022F9201C1BF04A
:102470002DFC0323020002209A43034B1043C01893
:1024800010BDC0460D4303000000808070B50600FB
:1024900008680D0002F090FE0021041C17F06CFD8E
:1024A000002802D0184809F003F9201C1BF0C8F9D5
:1024B000041C012E06D1032302209C432043134B0E
:1024C000C01870BD686802F077FE0021051C17F087
:1024D00053FD0028E6D1FE21281C890517F03CFD9C
:1024E000002803D00A490B4821F017FD281C1BF0D7
:1024F000A7F9011C201C17F0E3FF032302000220B0
:102500009A431043DBE7C0460D4303000000808080
:1025100002FD020014B60200002803D0012807D0F3
:10252000002070478B680448002BFAD10348F8E775
:102530008B685B001843F4E7B0AF0200A8AF02005D
:10254000044B88600B60044B08004B600023CB6099
:102550007047C04670E60200F71B02000021836846
:1025600070B5DA0FD21852109B00043B8A4201DC8E
:10257000054870BDC5688C002C19ED58266825608B
:10258000C4680131E650F0E780B8020070B5836896
:102590000D00416804008B4212D3C900C06823F0CB
:1025A00025FC63680A495A00A3686260D21A0133A5
:1025B00052189B00E0609200C018002126F086FCB3
:1025C000A368E268591C9B00A16002489D5070BD41
:1025D000FFFFFF3F80B80200F8B5070016004C105F
:1025E000836810D5E4180ED500240C4D380029005E
:1025F000FFF7CCFFBB68013BFA689C4207DBA400F5
:102600002800A650F8BD9C42EFD91C00EDE79800C9
:102610001118043909681150EDE7C04680B802006E
:1026200070B50025040085601021C06823F0DEFB32
:1026300004232900E0606360102226F047FC014873
:1026400070BDC04680B8020030B50C0085B0104B9C
:1026500002AD04310093013802230195FDF774FFA8
:1026600023680C4C996801290FD9D8680A4B029A43
:10267000C91889004118A24200D100222D79074BC8
:10268000002D00D1064B1FF0C4FA200005B030BD6C
:1026900028A9020080B80200FFFFFF3FA8AF020098
:1026A000B0AF020070B50C680B00A16802000029F1
:1026B00003D11949194821F030FC2068012A27D09C
:1026C0005A68002302F0ECFDE168A26886008B19CD
:1026D000013A1D680436A260121A92008919180086
:1026E00026F0E1FB0021A368E0689A0011506168C0
:1026F00004290BD95B00994208D949088900E06890
:1027000023F074FB6368E0605B086360280070BDC1
:1027100001225242D5E7C0461F43030054B20200D3
:1027200007B500900191022069461FF0DAFA694668
:1027300001900220FFF7B6FF00480EBD80B80200EE
:1027400070B50E000D490500002423F08BFCB36822
:10275000A34204D828000A4923F084FC70BD002C51
:1027600003D00849280023F07DFCF168A300012272
:102770005958280002F0EEFB0134E8E798610300A5
:10278000A22503003343030070B5032604000D00A7
:102790000E4029D1174B0A689A4225D183688A686E
:1027A00099184368994210D904318900C06823F010
:1027B0001DFBAA68A368E0609B181A1D9B0062605D
:1027C000C0181022310026F081FBA368E968980048
:1027D000E3681818AB689A0026F05CFBAB68A26847
:1027E000D318A360044870BD290020001FF082FAAE
:1027F000F8E7C04604AA020080B802000B4B70B58F
:10280000050003600C000800042900D20420686061
:10281000AC60800023F0CCFA6A68E860121BA40068
:1028200092000019002126F051FB70BD04AA02009D
:102830007FB50D001600122847D01ED8052824D0D9
:10284000002407281ED103A9100002F08DFC041EED
:1028500018D0039B002B01DA00230393AB68039885
:1028600058431FF060FAC36804000093AA68039BF2
:102870000421E86823F0C3FC04E00300193B0024B2
:10288000042B28D9200004B070BD0323002413407A
:10289000A342F7D11C00194A33689342F2D18B68E6
:1028A000B26898181FF03FFA0400AB68E9689A0014
:1028B000C06826F0EFFAA868E36880001818B368CB
:1028C000F1689A0026F0E6FADCE711002800FFF72D
:1028D0005BFF2C00D6E793070DD1084B12689A4294
:1028E00009D1B36800938A68F368C96811F084FE5F
:1028F000034C0028C6D1034CC4E7C04604AA02001A
:10290000B0AF0200A8AF0200F0B5032704008BB0FF
:102910000E0010000F40002A33D1002F2AD1654B42
:102920000A689A4226D104AAA06811F0F5FD002891
:1029300002D1614809F0AEF80599049BA268E068ED
:102940005D1A521A9B00890041189200C01826F0A7
:10295000AAFAA368AA00E818E3688000181852428F
:10296000390026F0B3FAA3685D19A560534D28001D
:102970000BB0F0BD07A9022007940896FFF792FE5E
:10298000F4E7042A2CD1A068002F1FD1494B0A6814
:102990009A421BD107AA11F0BFFD002806D107AA51
:1029A000E168A06823F03EFC0500E0E7079B08987B
:1029B000C01A1FF0B8F98368E1689A00079B050008
:1029C0009B00C918C06826F065FAD0E70023010013
:1029D0003200206802F064FCE3688000C558C6E756
:1029E000364D002F60D1334B0A689A425CD103AA5E
:1029F00002A902F01FFC07AA3100A06811F08CFDAB
:102A0000002896D0079B029A08999E180191761A81
:102A1000E068002E27DDA368F1186368994206D9A3
:102A2000890023F0E3F9A368E0609B196360029AD0
:102A3000079BA1689B18F21A52180899E0689B003E
:102A4000890041189200C01826F02DFA029B0399C4
:102A50009A00079B9800E368181826F024FAA368E8
:102A60009E19A66083E79B000399C018920026F088
:102A700011FA0899A268E368521A8900019359185B
:102A80000798029B9200C018019B8000181826F03E
:102A90000AFAA368B200F018E368800052421818DE
:102AA000390026F013FADAE70200310020001FF0A7
:102AB0007BF95CE734BA02002F66030080B802009D
:102AC000F0B50D001E00002385B00700110028009E
:102AD000009302220F4BFDF707FDAB1C9B00180073
:102AE000039323F065F9013D456035000760070059
:102AF000040008CD0C378360039B083BF618B542F1
:102B000002D1200005B0F0BD002101CD08F0AEF9E2
:102B100001C7F4E7FFFF000070B5150004001FF0C7
:102B2000B5F92A00024920001FF06FF970BDC046B8
:102B3000711E020070B543790D000024032B06D9E5
:102B4000836A074C9200E41AC369D358E41803213E
:102B50001FF08EF9447024120570847070BDC04659
:102B6000FD7F0000F7B5002304006171836083716D
:102B7000E260036101330F0015004361032906D8A9
:102B80000121836949429A00C06926F09FF9002318
:102B9000A3622362AA8BEB8BD218002A00D10132E8
:102BA000384E200031001FF030F92A8C310020000F
:102BB0001FF02BF9E3682000197D1FF052F9E3683C
:102BC0002000997D1FF04DF9E3682000197E1FF069
:102BD00048F9E3682000997E1FF043F9042F27D1BC
:102BE000636A226A31009A1A20001FF00EF9310040
:102BF000EA8920001FF009F93100AA8920001FF09E
:102C000004F90026AB8CB34217DCFF2120001FF033
:102C10003DF9042F35D1EA8A2B8B0237D318019363
:102C20000023019A9A422CD0AA8C0021009223E022
:102C3000022120001FF009F9D9E7AA6AF300D3188E
:102C40001A78032A03D1997820001FF01FF9013662
:102C5000D8E70126A86ACA008218507830420AD004
:102C60005088984207D15268D200606B99003A436D
:102C70000A500133D5E70131009A8A42E9DC022289
:102C8000F2E7F7BD4B1E0200F7B5224B0500A83353
:102C90001B680191022B29D847698F4226D2836A8B
:102CA0000269CF1B9C1A062F01D90F2C1FD9009443
:102CB0001F2C01D91F230093009B0026A34203D39E
:102CC0003E00032F00D90326012128001FF0BDF884
:102CD000009A730113430370009BBF1BE41A230087
:102CE0003B43E0D1AB6A2B61019B6B61F7BD0A4BA3
:102CF0003E009F4200D91E00022128001FF0A5F8C7
:102D00007022330913402343F03A13430370467093
:102D10000094E1E7782E0020FF07000070B50D0059
:102D2000012104001FF030F90E2D14D00F2D17D003
:102D300010210D2D10D0172120001FF0A7F803221D
:102D4000A36A042103339343A36220001FF090F889
:102D5000044B036003E0112120001FF097F870BDC1
:102D60001221F9E748D20200F8B5174F05000C0010
:102D700016000F40002A1AD111001FF005F9230494
:102D80000FD5322128001FF081F8322128001FF0D2
:102D90007DF8322128001FF079F8322128001FF039
:102DA00075F83A0035212800FFF7C4FEF8BD3A0057
:102DB0004621FFF7BFFE7F23210A99433143C9B261
:102DC00028001FF063F8F1E7FF7FFFFF030010B555
:102DD0000548002B03D120F036F802F0EFFD09681A
:102DE00020F037F8F9E7C04624B5020010B50348D3
:102DF000096802F0D3F8024810BDC04668E6020038
:102E000080B802000300203B5E2B00D93F20052341
:102E100020384343014A1068C018704768000020FA
:102E2000044B0B6043684B6083680800CB60002351
:102E30008B607047E0AB020070B505000800684386
:102E40000130401008300C0022F0B2FF0122044B88
:102E500085710360037944719343037170BDC0466B
:102E6000ECAE020010B50379DB0702D5014808F08B
:102E7000E3FD10BD3C43030070B50500202022F0A7
:102E800097FF05210B4B040003600800FFF7D4FFF8
:102E90006B68EA68A060236162602A7C2000A276E9
:102EA000AA689B1863616B7CE3761FF06CFC2000C2
:102EB00070BDC04630AF020070B50D000400FFF7D2
:102EC000D1FF280002F012F90100092802D90448B4
:102ED00008F0EEFB20001FF0C1FC024870BDC046A8
:102EE000D943030080B80200F7B5C3684269040003
:102EF00093420BD1037E052B08D1C37E181E43D00D
:102F000020001FF040FCA0681FF0B6FC0125002641
:102F10006B1E0193A7683200290038001FF06AFC7D
:102F2000320003000199380001361FF070FC052EB5
:102F3000F0D10135052DEAD100252A000023042116
:102F4000A06801351FF063FC052DF6D1227E637E5B
:102F50009A421AD2207FFFF755FF0025070004266A
:102F6000227E7B5DB21A1341012213400832534383
:102F700004212A00A06801351FF049FC052DEFD17E
:102F8000237EA06801332376FEBD9A42F8D1E36820
:102F900061695A1CE2608A4205D120232377A0236D
:102FA000DB002383ECE75878A67E2077002E01D043
:102FB000074BF6E7FFF726FF310005001FF0C3FBC4
:102FC0004042207628001FF0CDFB01306076D7E725
:102FD000FF050000F0B50C000B6889B00700180071
:102FE0000493FFF73FFF6568280001F09BFF1E4B2D
:102FF000984202D01D4808F01FFD072F01D11C4840
:10300000F9E7A06802F072F80690E06802F06EF846
:103010000790206902F06AF80590606902F066F88E
:10302000059B0600002B01DB002802DA114808F09E
:103030003FFB062F14D0A06902F058F80700E069A2
:1030400002F054F8059B0390009328000297019624
:10305000079B069A04991FF03CFC074809B0F0BD95
:1030600000200700EEE7C046ECAE02006943030013
:103070007C4303009643030080B8020070B504004F
:103080000800160002F032F80500300002F02EF8B9
:103090000600002D01DB002802DA0C4808F008FBCE
:1030A00020001FF001FCA84204DD20001FF00AFCF4
:1030B000B04201DC0648F1E73200290020001FF091
:1030C000E6FB43000120184370BDC046F2430300F5
:1030D0000B440300F8B50D000C682000FFF7C2FE9A
:1030E000686802F003F80600A86801F0FFFF070017
:1030F000002E01DB002802DA0F4808F0D9FAE86850
:1031000001F0F4FF0500092801D90C48F5E720007B
:103110001FF0CAFBB04204DD20001FF0D3FBB84211
:1031200001DC0748E9E72B003A00310020001FF0DE
:103130006EFB0448F8BDC046F2430300D9430300C8
:103140000B44030080B80200F7B50E0025490400C7
:10315000019223F045F8019B002B03D12249200066
:1031600023F03EF82149200023F03AF800253000F2
:103170001FF0A8FBA84225DD002730001FF094FBBC
:10318000B8420CDD39002A0030001FF080FB184BDC
:1031900018491A5C200023F023F80137EDE716499F
:1031A000200023F01DF8019B002B09D130001FF0F7
:1031B00089FB0138A84203DD1049200023F010F8F4
:1031C0000135D4E70949200023F00AF8019B002BC0
:1031D00003D10B49200023F003F80A49200022F014
:1031E000FFFFF7BD984403009F440300AB44030076
:1031F000AD440300E26103007D480300A5440300E1
:10320000872703005B470300F0B50E001100002282
:103210008BB01C00009203233000FDF765F9032EEC
:1032200000D9CBE0300016F0C3FC020A89890521E1
:103230000800FFF701FE02901FF01EFB18E0206857
:103240005F4B0340062B07D0830700D073E05D4B34
:1032500002689A4200D06EE007A90EF045FA079B7B
:1032600005900493012B06D100781FF036FD0290E3
:1032700002980BB0F0BD00231E001A0003930499BE
:10328000914216DD0599895C0A2901D03A2908D1B5
:103290009E4200DA1E00039B013303930023013298
:1032A000EDE701332029FAD03929F8D9464808F04A
:1032B000FFF9002B05D0039A013203929E4200DAF7
:1032C0001E00002703993000FFF7B6FD3D003C00CB
:1032D0000290049BBB4221DD059BDB5D0A2B01D0E4
:1032E0003A2B0DD1A64207DD210000232A000298C7
:1032F0001FF08DFA0134F5E7002401350137E8E7C6
:10330000202B07D1002321002A0002981FF07FFA0A
:103310000134F3E7392BF1D8303BF4E7039BAB42A0
:10332000A6DDA642A4DD210000232A0002981FF09A
:103330006EFA0134F5E7254808F07EFB206801F0BD
:10334000D5FE0500606801F0D1FE010007002800ED
:10335000FFF772FD0290022E00D16DE7012207A94E
:10336000A06802F07DF8002D0ADB002F08DB089B27
:10337000002404933B006B43049A0394934205D0CA
:10338000134894E7039B01345B190393BC4200D1BB
:103390006EE70026AE42F5D0039A079B944604934D
:1033A00063449A5D131C092A00D909233100DBB25A
:1033B000220002981FF02BFA0136EBE70548BBE725
:1033C000070080FFE0D502001B44030044440300D3
:1033D0005C44030079440300F0B585B00191050019
:1033E0000021019816F0BEFD041E02D0214808F00D
:1033F0005FF928001FF058FA060028001FF062FA53
:1034000001003000FFF718FD070028001FF04CFAFC
:10341000A0422BDD00263200210028001FF037FAE1
:1034200017F01CFD019917F027FA19F0A7FB0022ED
:10343000114B17F09DFD114B00220290039116F0E5
:1034400057FD0923002804D00298039919F024FBA2
:1034500003003200380021001FF0D9F9280001369E
:103460001FF022FAB042D6DC0134CEE7380005B0B6
:10347000F0BDC046AE4303000000E03F0000224024
:10348000F0B587B00700039105921FF01BFA040006
:1034900038001FF009FA019003981FF013FAA042B8
:1034A00002D01A4808F004F921000198FFF7C4FC83
:1034B00000250290019B9D4224DA0026A6421FDAD5
:1034C0003200290038001FF0E2F932000490290090
:1034D00003981FF0DCF9059B002B0BD0049B1B18F5
:1034E000092B00DD09233200290002981FF08FF913
:1034F0000136E3E7049B1B1ADA43D2171340F2E7C5
:103500000135D7E7029807B0F0BDC046B8440300C4
:10351000F8B5040008000D00160001F003FD164F79
:10352000B84201D000200FE0053C042CFAD820005E
:1035300016F034FB141403F80B00300001F03CFECD
:10354000011C2800FFF748FFF8BD300001F034FEF1
:10355000011CFE20800516F0B3FFF1E7300001F0FA
:10356000E1FCB842DED1624262413100D2B22800B1
:10357000FFF786FFE8E7C046ECAE0200F7B50700AC
:103580000193142008AB0E0015001C7822F010FCEB
:10359000044B47600360019B8660C56003744474FC
:1035A000FEBDC0466CAF020070B505000C2022F0D5
:1035B000FFFB0521044B0400456003600800FFF792
:1035C0003BFCA060200070BD94AB020010B50B79ED
:1035D0000349002B00D1034922F044FD10BDC04631
:1035E000D5440300DA44030037B50C001100002273
:1035F0001D00009201232000FCF776FF002C05D06F
:10360000286801F0B1FE034B002800D1024B1800DE
:103610003EBDC046B0AF0200A8AF0200F7B505003E
:103620002C200E001700019322F0D4FB040005703B
:1036300086608781072D01D0012D10D133787278F3
:103640000A3B1B0213439BB2E381019B202063755D
:103650000423638422F0ACFBA0622000FEBD014B7A
:103660005B5DF1E7E044030070B506000D00002843
:1036700014DD002907DD154816F038FB0124B0429F
:1036800009DB002407E00100C020000616F02EFB35
:103690000124A842F5DDE4B2200070BD002907DD59
:1036A000C020000616F022FB0124B042F3DCE8E75C
:1036B0000024A042F0D00100044816F017FB0123BB
:1036C000A84200DC231CDCB2E6E7C046FFFFFF3F58
:1036D000F7B50D00110000220600009228001F001F
:1036E0000B4BFCF701FF102022F06FFB041E08D1EA
:1036F000084B094A094C5A62002326602000A36047
:10370000FEBD3900280006F057FDE060F4E7C04632
:10371000FFFF0000782E002030C80200902E00200D
:1037200010B5013810C906F047FDE060004810BD33
:1037300080B80200F8B57F2453B205000E001700D0
:103740001440002B1BDB631E012B18D80B68586834
:103750001EF02CFA0100280022F084FC022C12D169
:103760001049280022F07EFCF368002B02D05A6832
:10377000002A0ED10C49280022F074FCF8BD022C5E
:10378000EED0002CF0D03A00F168280006F0B8FC2A
:10379000F4E7012AF7D100229968280001F0DAFB4A
:1037A000ECE7C046465803002F660300C368034891
:1037B0005A68002A00D098687047C04680B8020056
:1037C000136810B51400002B0BD0FC23FF33994273
:1037D00006D10C4B52689A4202D10023C380236069
:1037E00010BD094B994201D1C368F8E7074B026845
:1037F0009A42F5D1064B9942F2D1FFF7D7FF2060EC
:10380000EEE7C04680B8020003020000ACB402003C
:10381000E30200000EB470B5050087B0102022F05E
:10382000D4FA041E0BD11A4B1A4A1B4C9D61186224
:103830005A62200007B070BC08BC03B018470021D2
:1038400005608160012006F0B7FC2521E0600500DD
:103850000B9825F077FB061E09D10B9825F08AFB03
:10386000320001000B980DF0EBFAA860E1E702A826
:1038700010211FF07CFF0CAA0B9902A8019205F001
:10388000A5FC02A90548E5680DF0A4FAEDE7C046DD
:10389000782E002030C80200902E0020E0D50200D3
:1038A00010B50300820708D1064A0168914204D18D
:1038B000054AD9680120914203D00449180004F058
:1038C00069FA10BDD4BE0200D1360000ECB002008F
:1038D00010B5040001F026FB034BC2689A4200D0E9
:1038E00024690023A36010BDD1360000F8B516008E
:1038F0001D0004000F0001F015FB154BC2689A4231
:1039000000D02469A068002811D10C3022F05DFAA3
:10391000A06000280AD003236360E288A1689300B6
:10392000CB180332E2801F605E609D60F8BDE388C3
:10393000A18802338B42F0DB03318900012222F09F
:1039400062FA0028F2D0A388A0600333A380E4E7E2
:10395000D136000070B5150004000E0001F0E2FA47
:10396000064BC2689A4200D02469A368002B02D19A
:1039700033602B6070BDE2883260FAE7D136000018
:1039800010B504000AF08CFB074B02001B690749C5
:10399000074822F025FC02F0CDFB012C01D102F0FA
:1039A000EBFB044810BDC046782E0020E74403001E
:1039B00068E6020080B8020010B501F097FB0FF036
:1039C000ADFF014810BDC04680B8020010B502F03E
:1039D000B1F8014810BDC04680B8020010B502F031
:1039E0009FF8014810BDC04680B8020010B586B0EF
:1039F000040005AB04AA03A902A8FEF73BFB059B44
:103A0000029A0193049B064900930648039B22F007
:103A1000E7FB012C01D1FEF769FB034806B010BD9E
:103A2000FC44030068E6020080B8020010B5084CB0
:103A3000002805D1A834236801305B00184310BD6D
:103A4000086801F053FBA83420600248F7E7C0463D
:103A5000782E002080B802000122010003001140EE
:103A6000100000290CD10800990709D11B680549ED
:103A700010008B4204D00448181A43425841C0B287
:103A80007047C04624D30200B8AF02000023FA21D9
:103A9000094A89001360094A1370094A1360094AE8
:103AA0001160094A1370094A111D0832D3670122B7
:103AB000CB67074B1A707047A8010020132E002017
:103AC000A401002008000020142E0020782E0020E1
:103AD000152E002010B5084B084A1978002907D187
:103AE000916C002902D0FFF7D1FF10BD30BFF4E781
:103AF00000221A70F9E7C046152E0020782E00200B
:103B0000837F0248002B00D101487047B0AF02000C
:103B1000A8AF02000023A022E02110B583770C4B50
:103B2000D2050902D1500B4809F0B4FC0A4809F04B
:103B3000B1FC0A4809F0AEFC094809F0ABFC0948A1
:103B400009F0A8FC084809F0A5FC084810BDC046CB
:103B50000C05000010C5020018C5020028C50200AF
:103B600030C5020040C50200B8C4020080B802009F
:103B7000F8B5164C2368002B07D1482025F01EF914
:103B80000500134913F040FC2560124812490268F1
:103B90000B68D21A0123312A04D9623393429B4124
:103BA0005B420233002201260C4D2E702F78032F2A
:103BB000FCD101329342F8D1036820680B6013F006
:103BC000D1FB430001201843F8BDC046AC010020E2
:103BD000F4B60200CC2F0020B0010020162E0020E9
:103BE00030B50D4C87B02378012B13D10B4B02223B
:103BF0001D680621002302A823F04EFC082204A918
:103C0000684625F047F9039B029A280013F05AFBF7
:103C10000223237007B030BD162E0020AC01002017
:103C2000A02010B51049C0054B7F5A1C002B09D1AC
:103C30004C8C0E4BA3430E4C03510E4B4A77520053
:103C4000D05A0FE010335B00CB185C88A123DB0057
:103C5000C450092AF1D101200EF0D8FDFFF7C0FFB2
:103C60000120404210BDC0460C000020F01F0000A3
:103C70000C050000DCF7020073B5041E09D11A4DD3
:103C80002B78002B2CD0194919481FF00AF92C70F9
:103C900073BD184D2B1DDE6F01F044F9164B21004A
:103CA000984214D0154B2340062B05D0A30712D100
:103CB000134B22689A420ED101A920000DF014FD89
:103CC000019B012B0CD100781FF007F80100300098
:103CD0001FF0E7F8DCE70B490B481FF0C1F8A864B8
:103CE000FFF7D4FED4E7C046142E00208CAE0200AD
:103CF0000C000020782E0020ECAE0200070080FFB0
:103D0000E0D50200B045030060B50200F7B5A1237D
:103D1000A021214AC905DB00CA500123C27F0D3210
:103D200093401E4A8B50C37F01920133DBB2032BB9
:103D30002FD0C377020003000021223336321980CE
:103D400002339342FBD1C47F154A6300D318052286
:103D500004259446012167461A785E787A43114F0C
:103D60000633BA180F00AF4092191279013552008C
:103D70008218568C3E4356840D2DECD10D34A02371
:103D8000A122A140DB05D2009950828E01995A50A0
:103D9000F7BD0023CDE7C046F01F00000C05000072
:103DA000444503000C00002070B5394B8CB01A78E4
:103DB000022A07D1A0223749D2008A58012A07D007
:103DC00003221A70344DAB7F002B03D1FFF708FF9D
:103DD0000CB070BD2800FFF799FF304A30491368D6
:103DE0000968063313608B4207D300242D4B1460FF
:103DF0001B78012B0FD0022B45D000232A8C6B7728
:103E0000FF33FF331A42E1D0E1222749D2000120DB
:103E10000EF0C8FCDCE7254E331DDB6F002B04D011
:103E200033000833DB6F002B02D1FFF72FFEE4E7EE
:103E300001F076FE684601F09BFD00280CD11C4B7A
:103E4000186807F04DF8040001F0B0FD01F072FEB3
:103E50002000FFF711FFD0E701F06CFE019B154930
:103E6000186803F097FF0028F2D1019801F05AF882
:103E7000114B984203D11149114822F0B1F9019B2D
:103E80000024B364E4E70F4928001FF00AF8CCE7E8
:103E9000162E0020007000400C000020A40100201D
:103EA00008000020132E0020213C0000782E002066
:103EB000A8010020ACB4020044B30200D1450300C5
:103EC00068E602008CAE0200F0B5002485B0154D06
:103ED00002930AAB1B782E1D07000835080021004D
:103EE00001920393F467EC6706F0C0FF0E4B019A52
:103EF00018600E4BF7671A60029A0D4BE8671A704C
:103F00000C4B1C7006F0ECFFFFF7B6FE01220A4BCB
:103F10001C600A4B1A70039BA34201D0FFF7DAFD25
:103F200005B0F0BD782E0020A80100200800002078
:103F3000142E0020152E0020A4010020132E002096
:103F4000F0B50024384B8FB01D1D0833DC67374BAC
:103F5000EC6709AD80C90138019500930523FCF792
:103F6000F3FA6B68099C049307942B7B2E7A0593D4
:103F70002B7C20000393FFF76FFD2D4D002806D109
:103F800003232340022B09D12C40062C06D007AB7B
:103F90000022012127480CF09DFF0790079805405B
:103FA000062D05D0830730D1224B02689A422CD1CE
:103FB00008A90DF099FB089B002B23D0012B0DD1F4
:103FC000002E0BD1039B002B08D100781EF085FE3C
:103FD0000790079938001EF064FF13E00798FFF779
:103FE000E3FA079009AB1B7C002B03D0079810F075
:103FF00087FB0790059B049A0093079933003800CC
:10400000FFF762FF0C480FB0F0BD00F08BFF0B4BC9
:104010009842E7D1002E02D1039B002BD9D007A9EB
:10402000012006F0C9F8DCE7782E0020A0B70200D6
:10403000070080FFE0D5020080B80200ECAE02006D
:1040400070B51B4B8AB005AD40C90138009301958E
:104050000523FCF779FA059C20000494FFF7FCFC8B
:10406000002807D103232340022B0AD1114B1C4007
:10407000062C06D004AB002201210F480CF02AFFC9
:10408000049003A904980DF02FFB2A7C2B7B039945
:104090000092059AFFF772FA2B7A01000093300024
:1040A00000236A68FFF710FF04480AB070BDC046DD
:1040B000C8B70200070080FFE0D5020080B8020008
:1040C0000022074B10B51A70064B02321A70064BCD
:1040D000064A1B68063B1360FFF7FCFC10BDC04698
:1040E000152E0020132E002008000020A40100201F
:1040F00010B5FFF7E5FF014810BDC04680B80200CB
:1041000010B5042901D8042A02D9094807F0D0FAC9
:10411000092B01D90748F9E705244C430419A418D1
:1041200001229A402371038C1343038410BDC046BF
:10413000BD450300D9430300F8B548680C000D687D
:1041400000F0D4FF0600A06800F0D0FF0700E06890
:1041500000F0CCFF3A00030031002800FFF7D0FF49
:104160000048F8BD80B8020010B5042901D8042A1F
:1041700002D9044807F09CFA05234B43C018801865
:10418000007910BDBD45030070B5104C050021003D
:104190000F4809F095F921000E4809F091F9210026
:1041A0000D4809F08DF921000C4809F089F921002A
:1041B0000B4809F085F921000A4809F081F91EF041
:1041C000F4FE01230848AB7770BDC046E8D002007A
:1041D00010C5020018C5020028C5020030C5020043
:1041E00040C50200B8C4020080B80200F0B5036800
:1041F00099B00700986807911FF04DF8431E04938B
:10420000031D9B00FB1802933B0001220F2180003D
:1042100014331B180393FB6806A81A4009180A7088
:10422000032293430A930CA801F0A2FB031E00D0C3
:1042300044E3079A7D68BC68002A00D1A1E22A788D
:104240005E2A00D19DE20798079307F04BF904001E
:104250000AE0D84B63600434D74B9A6C002A00D133
:104260008EE200229C6C9A6401F0A0FB0D9425E381
:10427000D24BEFE7D24BEDE77F216B785B06DB1784
:104280003278DB01100052B2084003430136002AA5
:10429000F6DB01225B001343DCE700237F21327849
:1042A000DB01100052B20840C3180136002AF6DBC9
:1042B000DB000622EFE703220336964308CEC9E768
:1042C0000023C7E700237F213278DB01100052B2C0
:1042D0000840C3180136002AF6DB9B005B42029AB5
:1042E0009858002800D02BE3B649B7481EF0B8FD17
:1042F000ADE700237F213278DB01100052B2084085
:10430000C3180136002AF6DB029A9B005B429858DC
:104310001EF0F4FEE5E700207F223378C00119008B
:104320005BB2114008180136002BF6DB251D06F0A4
:10433000D7FB60603EE000207F223378C001190087
:104340005BB2114008180136002BF6DB251D06F084
:1043500095FBEEE700217F223378C90118005BB29C
:10436000104041180136002BF6DB20681FF0A8FD35
:10437000206071E700217F223378C90118005BB209
:10438000104041180136002BF6DB220001CC06F06C
:1043900021FD61E700207F223378C00119005BB264
:1043A000114008180136002BF6DB21000839251FC3
:1043B00003F0E0FC2C004FE7251D06F0A9FBB8E751
:1043C000251F04222168286801F018F82860F1E709
:1043D00000237F213278DB01100052B20840C3185D
:1043E0000136002AF6DB9B005B42029A2168995055
:1043F000FBE000237F213278DB01100052B208403D
:10440000C3180136002AF6DB029A9B005B42216842
:104410009858251F1EF074FECCE700207F223378C9
:10442000C00119005BB2114008180136002BF6DB01
:104430002168251F06F082FBBCE700207F2233782D
:10444000C00119005BB2114008180136002BF6DBE1
:104450002168251F06F08AFBACE700217F22337814
:10446000C90118005BB2104041180136002BF6DB81
:10447000231F1A68206806F0D5FC083CECE62200F1
:10448000231F083A21681268186800F0B7FF0C3C37
:10449000E2E600237F213278DB01100052B20840AF
:1044A000C3180136002AF6DB029A9B00D31A1A6859
:1044B000002A00D118E700221A60CDE600257F22ED
:1044C0003378ED0119005BB211404D190136002B14
:1044D000F6DB029BAD005D1B28681EF00FFE002876
:1044E00000D101E7002128681EF00AFEB4E6002092
:1044F0007F223378C00119005BB2114008180136E1
:10450000002BF6DB06F026FBA6E600207F223378A0
:10451000C00119005BB2114008180136002BF6DB10
:1045200006F030FB98E6230004CB62601C0093E6A3
:104530002368A360231F1B68636008348CE6231F75
:10454000196822682160B7E7221F13682168236079
:104550002300083B1868106019607DE67378327894
:104560001B021343ED18194BEE1875E63378767875
:10457000206836021E43019600F0F6FEEE1C251F51
:104580002C00002800D167E6114A019B9446634441
:10459000F61861E633787678206836021E43019675
:1045A00000F0E2FEEE1C251F2C00002800D053E690
:1045B000EAE7C046A8AF0200782E002080B80200CB
:1045C000B0AF0200F145030080B302000380FFFF9B
:1045D0000080FFFF33787678206836021E4301960C
:1045E000EE1C00F0C1FE0028CED1043C34E6337846
:1045F0007678206836021E430196EE1C00F0B4FE69
:104600000028C1D0F1E7F1212668220030004900DE
:1046100006F0E0FB2300F02108331A0030004900C7
:10462000019306F0D7FB0021019A08001FF039FC26
:10463000AB786A781B0213430A9AEE1C0C320A927A
:104640000A9AF31813600F2206ABD2181578231DAF
:104650001D4302230A992B434B6000230A991370D0
:104660008B60A060019CF7E525002368B54A0193A3
:10467000083D934209D16360A3602A000021032012
:104680001FF00FFC019B2B6094E60122019B13405D
:1046900005932AD0231F1A680592019A5210012A05
:1046A0000DD1A84A0C3C1A60E26022610021220070
:1046B00003201FF0F6FB059B23600323E3E72A6832
:1046C000002106929F4A03202A601A602300103BB3
:1046D00022601A0001931FF0E4FB019B069A0C3C38
:1046E0001A60059B23600523CDE7019B63601800DA
:1046F00000F018FC934B2060A3602A00059903206A
:104700001FF0CFFB00F030FE00280DD001228D4BB2
:1047100006A92B600A9B5B6813400E325218137077
:104720000A9B0C3B0A9345E66368ACE773783278E2
:104730001B021343844AEB189B186360EB78083420
:1047400023600F267F210220012506AA2368B618C0
:104750000B4206D1221F1668002B00D18DE6183CB3
:104760007AE50A9A013B526802426FD0220008C2E1
:104770000523636014000A9B1E680A9B0C3B0A9386
:1047800035007D602B786E1C180010385A2800D92F
:1047900003E315F017FA5EFD6DFD6FFD020371FD79
:1047A000020382FD90FD95FD97FDAEFDC0FDD0FD9D
:1047B000DFFDEFFDFFFD11FE15FE1DFE2EFE42FE8C
:1047C00052FE62FE74FE7EFE93FEACFEBAFE020353
:1047D000020302030203C8FECDFE2AFFD4FED9FE67
:1047E000E3FEEBFEFFFE1FFF2CFF020302030203AA
:1047F00038FF69FF630063008000AE00BF00DD008A
:10480000DD00CBFFB3000203020302030203020335
:10481000020302030203E900FB0002030D011C0175
:104820000203250152013701730189013602660234
:1048300094027E0202039E01A801B201BF01CB01D6
:10484000E80102021F02CC02EB02FC020A9A526843
:104850002A4032700A9A0C3A0A9279E773783278D1
:104860001B0213430A9AEE1C0C320A920A9AF3189E
:1048700013602B7806A9403B5A4253410F2252182D
:1048800010785B000A99034323434B6000230A9985
:1048900013708B60E0E423682A4A934200D1A4E6B7
:1048A000DA0707D55B10DBB2043C012B00D048E7E8
:1048B0000222CCE101F07AF823680D930D9B234985
:1048C000186803F067FA002800D1ACE27A68002A81
:1048D00000D1A8E21378432B00D096E29378507869
:1048E0001B02D11C0343CB187B60BB68103BBB6031
:1048F00099E40021206806F0B9FA39E52500210085
:1049000020680C3506F0B2FA844200D152E500234B
:1049100023600EE52000337876780C383602BC60D0
:104920001E4303680196EE1C002B02D12300083BB6
:10493000186806F0D5FA002802D1103C019B27E642
:10494000606088E480B802000380FFFFACB402001E
:1049500001220A9B06A95B6813400E32521813709D
:104960000A9B0C3B0A9377E400207F223378C00136
:1049700019005BB2114008180136002BF6DB8100EC
:10498000641A0434210005F017FCF1E400207F22B2
:104990003378C00119005BB2114008180136002BB2
:1049A000F6DB8100641A043421001DF0DFF9DFE436
:1049B00000207F223378C00119005BB21140081833
:1049C0000136002BF6DB251D1FF0E0FEB1E42500CB
:1049D000231F083D1A68216828681FF010FFE9E4CA
:1049E00000207F223378C00119005BB21140081803
:1049F0000136002BF6DB8100641A0434210007F035
:104A0000FBF9B5E400237F213278DB01100052B2BC
:104A10000840C3180136002AF6DB251F28682168E4
:104A2000022B03D1CB4A00F02FFFCFE4083C0A0051
:104A30000100206800F028FF9AE400237F213278EB
:104A4000DB01100052B20840C3180136002AF6DB21
:104A50009A08920052421059032221681340251FE0
:104A6000002B02D1FDF792FDA4E4012B03D12A68AB
:104A70001FF0C5FE01E51FF09BFB9BE400257F2195
:104A80003378ED011A005BB20A4055190136002B4C
:104A9000F6DB22002900206806F0DAFBAE4B5D1938
:104AA000AD006419FFF7D8FB00257F213378ED01B5
:104AB0001A005BB20A4055190136002BF6DB2200C2
:104AC0002900206806F016FCFF222B0A134015402F
:104AD000E5E7032203369643002201CE1100251D8F
:104AE0001FF0DEFF25E4032203369643251F2268CC
:104AF000296801CE1FF0D4FF68E40322F31C93431E
:104B000019795E1D8A00A41A0434220018681FF067
:104B1000E3FF2DE40322F31C934318798021C24361
:104B2000490092005E1DA4180143EEE700207F219A
:104B30003378C0011A005BB20A4010180136002B0E
:104B4000F6DBFF25FF220100C3096D0011402B4059
:104B50005B189B00E41A000A0240231D206806F03F
:104B60008FF8FFF705FC00217F223378C901180078
:104B70005BB2104041180136002BF6DBFF22CB0957
:104B800052001340CAB29B189B00E41A083C220052
:104B9000002006F00DFAFFF7EBFB00237F203278B0
:104BA000DB01110052B20140CB180136002AF6DBBE
:104BB000FF211800FF250840DA096D002A40451C36
:104BC00052199200A41A1B0A194022001FF069F919
:104BD000FFF7CEFB00217F223378C90118005BB2BA
:104BE000104041180136002BF6DBFF22CB095200A2
:104BF0001340CAB29B189B00E41A0C3C220001200F
:104C0000C7E70F2206ABD2181378002B00D14FE66E
:104C100001210A9B5B680B4013700A9B0C3B0A93B3
:104C200046E60A9B5B6813420ED003220A9B21686A
:104C30005B6893431C0059609A600A9B08341E68A5
:104C40000A9B0C3B0A939BE50A9B0C3B0A930A9B2D
:104C500003998B42E5D200F0A9FE0020BC6019B098
:104C6000F0BD6B78022B03D1043C2068FFF7EDFA0E
:104C7000002BFAD10A9B039A934203D23749384852
:104C8000FFF734FB9868002801D0FFF7DEFA0C3BF1
:104C9000F1E7231F0593079B0193231F1868019BCE
:104CA000002B19D00021079B07910193019A0BABB0
:104CB00006F09EFB0B9B012812D12E00236000F012
:104CC00075FE0F2306AA9B181A780A9B7E60134371
:104CD000BC60FB600120C2E70BAB019A2168E7E7EB
:104CE000002811D1002B00D11A4B043C2360019BFA
:104CF000002B19D01B4918001EF0BCF8002813D057
:104D000000F054FE019BD8E5174918001EF0B2F8D8
:104D1000002805D00B98FEF749FD043C2060E6E72B
:104D200000F044FE0B9BC8E5059CFFF795FA0020B8
:104D30007F223378C00119005BB211400818013698
:104D4000002BF6DB251F2A68216806F0E9FBFFF738
:104D50003DFBC04680B80200FFFFFF3F374603001F
:104D600070B40200A0B10200ACB4020000217F22A6
:104D70003378C90118005BB2104041180136002B8E
:104D8000F6DB250001CD06F0DDFBFFF7D2FA206847
:104D9000251F1FF0A1F8FFF70DFBAF2B05D8012051
:104DA000803B5B000343FFF755FABF2B04D8B022CA
:104DB000D31A9B00FFF793FACF2B04D8C022D31A43
:104DC0009B00FFF712FBD62B06D8D03B18002168BA
:104DD00005F0E4FEFFF7CCFAFA2B08D8251FD73BE5
:104DE00018002268296806F06BFCFFF7EFFA4549C6
:104DF00045481EF035F8040000F0D8FD049B04334C
:104E00009B00FB185C60022029E75E2B0BD1BC687D
:104E10000D98231DBB60FEF7C9FC60607B68013301
:104E20007B60FFF700FA0D9B384A93422AD0384A3C
:104E3000934227D03B6898681EF033FA1EF031FA8F
:104E40007B68051D28005C1B1EF025FA0600280063
:104E50001EF027FA05001EF01EFAA41B060028000B
:104E60001EF01FFA05001EF016FA019028001EF031
:104E700018FA01220378002B09D1330001990D980B
:104E8000FEF734FD0F2306AA9B1801211DE059B23D
:104E9000002909DB19001F255B09294001308C42DC
:104EA000EBD3641AD218E5E70F21E0251940ED0095
:104EB0001B012B40457802302B43F0E70A9A5268D9
:104EC0000A401A700A9A0C3A0A921A78002AF5D106
:104ED0000A9903980D9A81420DD3012119700A9BFA
:104EE00002311B687B600A9B5B688B430A99043321
:104EF0008A601A60FBE4049B04339B00FB185A6031
:104F000081E7C0461D460300BCB3020018B0020092
:104F100028B0020010B5024921F0A4F810BDC04627
:104F200056460300074BC2070AD4074A074B024004
:104F3000062A05D00322064B0240022A00D003684D
:104F40001800704724D30200070080FFE0D502005C
:104F50002891020070B50D000400160009F0BAF89F
:104F60002800FFF7DFFF8368002B04D03200290000
:104F70002000984770BD42680249200021F030F9B6
:104F8000F8E7C0469F47030010B50A000100024839
:104F9000FFF7E0FF10BDC04668E60200F7B5040069
:104FA00008000E001DF060FF00280FD001AA69461E
:104FB0003000FEF7CFFC009B002B07D015492000E6
:104FC00021F050F8009BDD1E002D09DA310002228D
:104FD0002000FFF7BFFF1049200021F043F8F7BD84
:104FE000019AAF00D3195B68D2590C49200021F017
:104FF000F7F8019BDF19BA68002A05D1064920009D
:1050000021F030F8033DDFE70549200021F0E8F802
:10501000F8E7C0465D470300872703008147030088
:105020009647030010B50400FFF77CFF054B0069AD
:10503000984203D0431E9841C0B210BD20001EF01C
:1050400052FAFAE7B17B000070B505000C000120B0
:105050008D4203D0214B9D4201D1002070BD994269
:10506000FBD001231D4204D01942F6D12B000D00C4
:105070001C002A001A4B1A40062A05D0AA0711D193
:10508000184A296891420DD12340062B05D0A30769
:10509000E3D1144B22689A42DFD1210028000CF0A2
:1050A000D3FADBE72340062BD7D0A30703D10D4B60
:1050B00022689A42D1D02800FFF734FF8369002B81
:1050C000CBD0220029001B2098470028C5D0064BD2
:1050D000C01A43425841C0B2C0E7C04680B802007F
:1050E000070080FFE0D50200B0AF0200104B10B502
:1050F000984219D00F4A0123904217D0184201D08C
:10510000184110BD830706D10B4B02689A4202D1A9
:105110000FF0F6FDF5E71DF064FF084902000848AE
:10512000FEF778FB00F04AFC0020EAE71800E8E709
:10513000A8AF0200B0AF020024D30200244703004E
:1051400060B5020010B5C30705D4830706D1054B2F
:1051500002689A4202D121F031FA10BDFFF7C6FF72
:10516000FBE7C04624D30200104B70B50D000124AC
:10517000984204D100230B602300180070BD0C4B33
:10518000984201D10C60F7E70300234002D04010A1
:105190002860F1E703220240EFD1130005490268BD
:1051A0008A42EAD10FF0ACFDF2E7C046A8AF020098
:1051B000B0AF020024D30200184B10B5984228D09B
:1051C000174B984227D0C30703D5401015F046FE71
:1051D00010BD0323184206D1124A0168914202D140
:1051E00021F0F5F9F4E702001A40022A08D10E4A2C
:1051F0000240062A04D0FF22D20580189843E7E730
:105200001DF0EFFE094902000948FEF703FB00F01C
:10521000D5FB0020DCE7FE208005D9E7A8AF02001F
:10522000B0AF020024D30200070080FF0A4703004A
:1052300060B5020010B583070CD103680A4CA34285
:1052400002D11EF0FDFB10BD084CA34202D11CF0A0
:10525000A4FDF8E71DF0C5FE054902000548FEF76C
:10526000D9FA00F0ABFBC04638C8020004AA02001D
:10527000BA46030060B5020013B50C0001A9FFF7A0
:10528000D9FF019BA34206D0220003490348FEF741
:10529000C1FA00F093FB13BDDD460300D8B5020050
:1052A000F7B506000D0014001F00D3070FD55410EA
:1052B0000194019B002B01DA5B190193019B002FE4
:1052C0001BD0002B15DA002301930198FEBD01A924
:1052D0001000FFF749FF0028EBD1200075681DF092
:1052E00080FE2A0003000A490A48FEF793FA00F0FC
:1052F00065FBAB42E9D90195E7E7002B01DBAB4247
:10530000E3D3726804490548FEF784FAEFE7C04624
:105310008046030060B50200A446030054B20200B8
:1053200010B50400830710D10D4B02689A420CD1CE
:105330000C4B0340062B06D1C0081CF032FC430086
:105340000120184310BD8068F9E72000FFF7EAFD4F
:105350004369181EF6D0210001209847F2E7C046A5
:105360001CD90200070080FF164B70B50400002016
:105370009C4203D0144DAC4201D1012070BD134BAF
:1053800000209C42FAD001262640864203D06010BD
:10539000431E98410DE02000FFF7C4FD4369002B38
:1053A00009D0210030009847002804D0401B434218
:1053B0005841C0B2E2E72000FFF7B2FF0028DCD07E
:1053C0000138E5E7A8AF0200B0AF020080B80200E4
:1053D00010B50400FFF7A4FF002809D120001DF03C
:1053E00000FE044902000448FEF714FA00F0E6FA51
:1053F00010BDC0463C47030060B5020070B5040014
:105400000D001600FFF78EFD036A002B05D0320059
:10541000290020009847002818D10D4D2000002EAB
:1054200008D11DF0DEFD02000A492800FEF7F2F95E
:1054300000F0C4FA042E04D11DF0D3FD0649020089
:10544000F3E71DF0CEFD05490200EEE770BDC04652
:1054500060B50200A4470300CF470300F0470300F4
:1054600010B51DF0D5FD002802D1024806F0E4FA7F
:1054700010BDC0465B46030010B521F0C7FF0148D0
:1054800010BDC04680B8020010B5C30708D483071A
:105490000ED10368094A934202D0094A934207D1C8
:1054A000FFF724FE002801DD1CF06CFA054810BD52
:1054B000FFF782FE15F0B2FCF4E7C04624D30200E9
:1054C000B8AF020080B8020001220B4B10B51A6081
:1054D0000A4A51680029FCD000215160A122013103
:1054E000D2009A5859600323D017184080188010B2
:1054F00021F027F810BDC04600C00040FCC00040AD
:1055000010B5002804D1044810F066FC034810BD13
:105510000868FFF7EBFDF7E7E703000080B802003B
:10552000F8B5070008680C001EF055FA0500606821
:10553000FFF71AFF0600022F0AD9A068FFF7D6FD71
:105540000200310028001DF083FD20F0FAFFF8BDB5
:10555000004AF6E740420F0010B504001EF055F96E
:1055600020F0EFFC01280BD0064920001EF068F95E
:1055700020001EF04AF920F0E4FC022800D00020B0
:1055800010BDC04659480300F0B59DB000AF0C688F
:10559000032835D9CB68FB60042835D00D6900207D
:1055A0006D102BD41C232000F9180CF09DF87861A5
:1055B000002D59D0954C9649606807F08DFE060085
:1055C000606800229349043007F03CF81823FA1869
:1055D000D118040030000CF087F83B6B013D01004E
:1055E000C318002C05D1994203D2013B1A782E2A08
:1055F000F9D1013D0ED299420FD1874806F058F8F3
:10560000864B0025FB60CDE70025CBE7013B1A78F0
:105610002E2AEED09942F9D3EBE7FE695C1A2500F9
:10562000002E01D0751C2D196A46EB1DDB08DB002E
:10563000D31A9D46220018003B6123F02BFC002E5C
:1056400008D02E233A69601C13551018796932006E
:1056500023F020FC29003869FCF7A0FC06243B69F4
:10566000C0000443FD617B6120000BF00BFC04F0E3
:1056700099FA061E15D02E21786923F063FC0028C4
:105680000BD0664BFA689A4207D17B69C11A1800A1
:10569000FCF784FC04F086FA06003000BD461DB01D
:1056A000F0BD182318000125FA18D2183818103B3D
:1056B0004021C0181EF074F8BE603E61FB69AB4229
:1056C00005D2564BFA689A42E7D0BE68E5E7AB428E
:1056D00004D07B695B5D2E2B00D094E029007869B3
:1056E000FCF75CFC7B6A3860002B17D12A00082489
:1056F00079691833F81800191EF01DF81823FB18E3
:105700001819FFF729FF78607B68002B14D13A68DD
:1057100043494448FEF77EF800F050F91823082466
:10572000FA182F21101903F0FDFC3B693969EA1AB8
:105730007B6959181823DDE7386804F033FA041E32
:105740004BD1386804F0FCF9FB690400AB4213D17B
:10575000354BFA689A420FD17B68012B0FD0334A40
:105760002B4940681FF04BF818220823BA18D118AB
:1057700020001DF09EFC30E07B68012BF4D100225C
:10578000796AB86A0BF05CFBF4210200FF3120005B
:1057900005F048FB7B6A18227B600823B818C01804
:1057A0002F2103F0BFFC18220823B818C018204985
:1057B0001EF046F818220823BA18D0181EF025F853
:1057C00020F0BFFB022806D118220823BA18D118EE
:1057D00020001DF06EFC7B687B62BB68002B0CD048
:1057E0007A693B699446E91A63441800FCF7D6FBD2
:1057F00022000100B86805F015FB002E00D126003C
:105800006B1C3B61BC60013558E7C046782E002018
:10581000860F00009E0F00001D48030080B80200A4
:105820003C480300DCB10200A8AF0200760F000084
:105830005148030070B504000D00104920F012FC1F
:10584000696801222000FFF785FB0D4E2000310022
:1058500020F008FCA96801222000FFF77BFB310043
:10586000200020F0FFFBE96801222000FFF772FB17
:105870000449200020F0F6FB70BDC0465D480300DF
:10588000334303005B47030070B5060010200D0092
:10589000140020F08DFA034B466085600360C460FD
:1058A00070BDC04634BA020010B50400082020F0D4
:1058B0007FFA024B4460036010BDC04670BA02001C
:1058C00070B50D00FFF778FC041C2800FFF774FC8E
:1058D000211C15F0E7F8051C1DF05CFC011C281CC0
:1058E00014F0CAFF211C14F06FFC032302000220F5
:1058F0009A43024B1043C01870BDC0460000808020
:1059000010B51DF047FC0323020002209A43024B0E
:105910001043C01810BDC0460000808010B5074C71
:10592000002802D00868A04203D110F027FB200015
:1059300010BDFFF707FC10F041FBF8E780B802004C
:1059400010B50400FFF744FDFFF7D0FB002803DC8F
:10595000002106481EF0E1FA10F0EAFA20F0F1FD0D
:10596000042201002000FFF749FD10BD54B20200DF
:10597000C4600561466187614146C1614946016273
:1059800051464162594681626946C16271468160F1
:10599000004908479D5900000020C046024B9A6804
:1059A0000260986000207047782E0020024B9A68B1
:1059B00012689A607047C046782E00200E4A93689D
:1059C000002B01D120F0CAFA196858609160181CA8
:1059D000C468056946698769C1698846016A89465C
:1059E000416A8A46816A8B46C16A8D4681688E46C5
:1059F00001207047FEE7C046782E0020F0B52F4DFD
:105A000085B02F00B43703972A00FC32536C2C4921
:105A10008B4201D805B0F0BD043B53642A00AC3280
:105A20001668032400221B68013299188808305C2C
:105A300021404900084120400228F5D0032603995F
:105A40001B0109681201CB18D21802921B4A029955
:105A50008B42D9D00F211868084229D11949096809
:105A6000814225D81400B8342468844220D9401AD1
:105A7000010901911100AC3109688009019C0818E5
:105A80000178344064008C462141314001290FD116
:105A90003700A7403C0067463C4304701400FC34C8
:105AA000606C094FB84205D2011D61640199016023
:105AB0000433CCE71000BC30F9E7C046782E002054
:105AC000382F00202C2F0020B82F00200F239943BF
:105AD00070B506000D00081A412114F07DF80F4C36
